:03000000021131B9
:0C113100787FE4F6D8FD75814C020800C0
:0D11170075A4C075A5BF43F24075E24022EB
:07100600120F5A7F0A7E0061
:10100D00AC06AD07D3ED9400EC94004015E4FAFB6B
:10101D000BBB00010AEB64784A70F5ED1D70E51C01
:02102D0080E25F
:01102F00229E
:100F5A00A907E9C41313135401139293E9C4131391
:100F6A005403139292E9C4135407139291E9C45497
:100F7A000F139290C294D2957F027E0012100DC276
:100F8A0095E9131313541F139293E91313543F1340
:100F9A009292E9C313139291E9139290C294D29553
:060FAA0012100DC2952299
:100FB000A907E9C41313135401139293E9C413133B
:100FC0005403139292E9C4135407139291E9C45441
:100FD0000F139290D294D2957F027E0012100DC210
:100FE00095E9131313541F139293E91313543F13EA
:100FF0009292E9C313139291E9139290D294D295ED
:0610000012100DC2952242
:1010D900ED7007EF2480F54C8005EF24C0F54C1224
:0710E9001009AF4C020F5A81
:101059008B498A4A894B1210D9AB49AA4AA94B1222
:101069000DC1FF6010120FB07401254BF54BE4352B
:061079004AF54A80E42262
:101030001211177F327E0012100D0F1210067F3230
:101040001210067F281210067F0C1210067F011264
:091050000F5A7F1E7E0002100DF4
:0C113D007F01120F5A7FA47E0602100DE5
:10109F000000000000000000000000000000000041
:1010AF000000000000000000000000000000000031
:1010BF0075F38230EDFDC2EDE4F53D85C53E85C487
:0910CF003F85C340FB7A00793D26
:0110D80022F5
:081155008F993099FDC2992227
:0F1107007D007C36ED1D70011C144C70F7DFF17C
:0111160022B6
:1008000078197C007D007BFF7A10799F7E007F2025
:10081000120D9B53D9BF12115D1211241210F01248
:10082000107F121030C2ED75F383D2AF12113DD29A
:1008300080D281D286C290C291C292D293D294D2F7
:1008400095D296D297020C39E508C4540F24FF9232
:1008500093A293E433C4F8540FC868FFE4C454F07F
:1008600048FEE508FB7A00C39FFFEA9EFE7C007D00
:1008700008120DDAEE4F24FF9294A293E433C4F8E9
:10088000540FC868FFE4C454F048FEC3EB9FFDEA70
:100890009EFCA294E4FE337803C333CE33CED8F962
:1008A000FFC3ED9FFFEC9EFE7C007D04120DDAEE8F
:1008B0004F24FF9295A293E433C4F8540FC868FF05
:1008C000E4C454F048FEE508FB7A00C39FFDEA9EAD
:1008D000FCA294E4FE337803C333CE33CED8F9FFC1
:1008E000C3ED9FFDEC9EFCA295E4FE337802C3337A
:1008F000CE33CED8F9FFC3ED9FFFEC9EFE7C007D8A
:1009000002120DDAEE4F24FF9296A293E433C4F85C
:10091000540FC868FFE4C454F048FEC3EB9FFDEADF
:100920009EFCA294E4FE337803C333CE33CED8F9D1
:10093000FFC3ED9FFDEC9EFCA295E4FE337802C35D
:1009400033CE33CED8F9FFC3ED9FFDEC9EFCA296CB
:10095000E43325E0FFE433FEC3ED9FFFEC9E4F241C
:10096000FF9297020A71E50A1313543F24FF9286FF
:10097000A286E4FE337802C333CE33CED8F9FFE546
:100980000AFB7A00C39FFFEA9EFE7C007D02120DE7
:10099000DAEE4F24FF9281A286E4FE337802C3335D
:1009A000CE33CED8F9FFC3EB9FFDEA9EFCA281E4D3
:1009B0003325E0FFE433FEC3ED9FFFEC9E4F24FFA1
:1009C00092807F021211078026AE17AF18AC13ADCC
:1009D00014C3ED9FFFEC9EFE121149EE3395E0FD2E
:1009E000FC7B5C7A8F79027800C3120EDE503212E3
:1009F00010BFC002C00178117C007D00D001D00280
:100A00007E007F04120D9B1210BFC002C00178153A
:100A10007C007D00D001D0027E007F04120D9B80FF
:100A2000A8AF14AE13AD12AC117B807A967998788A
:100A300000C3120EF45058E50AB40800504B900A57
:100A400045F8282873020A5D020A5F020A65020A55
:100A50006B020A71020A77020A7D020A83802AE485
:100A6000F50A020966750A01020966750A06020995
:100A700066750A03020966750A02020966750A07A5
:100A8000020966750A05020966750A04020966E428
:100A9000F50B1210BFC001E50B75F004A42419F981
:100AA000E4A801FCFDD001FE7F04120D9B050BE5BF
:100AB0000BC3940440DCE51C2520FFE51B351FFE1D
:100AC000E51A351EFDE519351DFCEF2524FFEE3531
:100AD00023FEED3522FDEC3521FCEF2528FFEE3518
:100AE00027FEED3526FDEC3525FCE47B04FAF9F80C
:100AF000120E4C8F148E138D128C117FFF12115514
:100B00001211557FCC1211557FDD121155AF09120C
:100B10001155AF0A121155AF11121155AF12121122
:100B200055AF13121155AF141211557FFF12115505
:100B30007FEE121155121155E508B4200040030252
:100B40000CC2900B49F8282873020BA9020BB202C1
:100B50000BBB020BC4020BCD020BD6020BDF020B48
:100B6000E8020BF1020BFA020C03020C0C020C154A
:100B7000020C1E020C27020C30020C39020C42023D
:100B80000C44020C4D020C56020C5F020C68020C65
:100B900071020C7A020C83020C8C020C95020C9EE2
:100BA000020CA7020CB0020CB975080FE4F509029B
:100BB000084875081175091D02084875081275095D
:100BC0001B020848750813750919020848750814AE
:100BD0007509170208487508157509150208487542
:100BE00008167509130208487508177509110208D7
:100BF0004875081875090F02084875081975090D18
:100C000002084875081A75090B02084875081B7513
:100C1000090902084875081C750907020848750883
:100C20001D75090502084875081E75090302084864
:100C300075081F750901020848E4F50875091F02C7
:100C40000848807E75080175091C0208487508026D
:100C500075091A02084875080375091802084875CD
:100C60000804750916020848750805750914020874
:100C700048750806750912020848750807750910B5
:100C800002084875080875090E02084875080975B4
:100C9000090C02084875080A75090A02084875080F
:100CA0000B75090802084875080C75090602084802
:100CB00075080D75090402084875080E75090202C9
:0B0CC000084875081075091E0208485E
:07115D0075B28375EF042257
:0D11240075E10175E24043A4D075A5FF22DE
:1010F000759810758D96538EF4858D8B53890F439B
:071100008920D28ED2992252
:10107F0043D103E4F5F475FB0475F708F59B759AF6
:10108F0013F5BD75C67675F38130EAFD75F38022D1
:0300530002116433
:011164003258
:100CCB00E709F608DFFA8046E709F208DFFA803E0B
:100CDB0088828C83E709F0A3DFFA8032E309F608F8
:100CEB00DFFA8078E309F208DFFA807088828C8360
:100CFB00E309F0A3DFFA806489828A83E0A3F60814
:100D0B00DFFA805889828A83E0A3F208DFFA804CED
:100D1B0080D280FA80C680D4806980F280338010C4
:100D2B0080A680EA809A80A880DA80E280CA80332D
:100D3B0089828A83ECFAE493A3C8C582C8CCC583A5
:100D4B00CCF0A3C8C582C8CCC583CCDFE9DEE78075
:100D5B000D89828A83E493A3F608DFF9ECFAA9F0F4
:100D6B00EDFB2289828A83ECFAE0A3C8C582C8CC4A
:100D7B00C583CCF0A3C8C582C8CCC583CCDFEADE63
:100D8B00E880DB89828A83E493A3F208DFF980CCC5
:100D9B0088F0EF60010E4E60C388F0ED2402B404BE
:100DAB000050B9F582EB2402B4040050AF23234565
:060DBB008223900D1B7362
:100DC100BB010689828A83E0225002E722BBFE0230
:090DD100E32289828A83E4932263
:100DDA00C2D5EC30E709B2D5E4C39DFDE49CFCEE34
:100DEA0030E715B2D5E4C39FFFE49EFE120F05C398
:100DFA00E49DFDE49CFC8003120F0530D507C3E493
:060E0A009FFFE49EFE22A2
:100E100075F008758200EF2FFFEE33FECD33CDCC99
:100E200033CCC58233C5829BED9AEC99E58298401C
:100E30000CF582EE9BFEED9AFDEC99FC0FD5F0D6F9
:100E4000E4CEFBE4CDFAE4CCF9A88222B800C1B923
:100E50000059BA002DEC8BF084CFCECDFCE5F0CB61
:100E6000F97818EF2FFFEE33FEED33FDEC33FCEB9A
:100E700033FB10D703994004EB99FB0FD8E5E4F955
:100E8000FA227818EF2FFFEE33FEED33FDEC33FC42
:100E9000C933C910D7059BE99A4007EC9BFCE99A36
:100EA000F90FD8E0E4C9FAE4CCFB2275F010EF2F7B
:100EB000FFEE33FEED33FDCC33CCC833C810D7077B
:100EC0009BEC9AE899400AED9BFDEC9AFCE899F8B6
:0E0ED0000FD5F0DAE4CDFBE4CCFAE4C8F92249
:100EDE00EB9FF5F0EA9E42F0E99D42F0EC6480C88B
:060EEE0064809845F0222B
:100EF400EB9FF5F0EA9E42F0E99D42F0E89C45F054
:010F040022CA
:0C114900EE30E707C3E49FFFE49EFE22A7
:100F0500BC000BBE0029EF8DF084FFADF022E4CCD0
:100F1500F875F008EF2FFFEE33FEEC33FCEE9DEC99
:100F2500984005FCEE9DFE0FD5F0E9E4CEFD22EDDF
:100F3500F8F5F0EE8420D21CFEADF075F008EF2F29
:100F4500FFED33FD4007985006D5F0F222C398FD1A
:050F55000FD5F0EA22B7
:00000001FF
